:100000000C94EB020C9408030C9408030C94080362
:100010000C9408030C9408030C9408030C94080334
:100020000C9408030C9408030C94781A0C944D1942
:100030000C94A6200C9408030C9408030C94080359
:100040000C9408030C9408030C9408030C94080304
:100050000C9408030C9408200C9408030C940803D7
:100060000C9408030C9408030C9408030C940803E4
:100070000C9408030C9408030C9408030C940803D4
:100080000C9408030C9408030C9408030C940803C4
:100090000C9408030C9408030C9408030C940803B4
:1000A0000C9408030C9408030C940803C706D006AC
:1000B000D506DA06DF06E406E906EE06F306F806DC
:1000C000FD065104150718071B071E0721075304D7
:1000D00024073A07DE07DE071C081C0865088508A8
:1000E000590AB20AC708B309C509C509370B3A0B43
:1000F0003D0B400B430B460B490BA50DAA0DB40D50
:10010000A80DAD0DB20DB00D1D1037106310A41069
:10011000E51030113311361139113C113F114211E4
:10012000451148114B115011531156115B116011BB
:1001300063116611C925F0259027F02590273826F0
:100140005B26902759276C27232823283628362812
:100150002C283628362836282328232831283628E4
:1001600036283128E3002B00E300E10035000000D1
:100170001E00140004001D0034004C001F001A0073
:1001800016001B00E0002A002000080007000600FF
:1001900050002C0021001500090019004F004D00EF
:1001A000220017000A0005000000E2005000015381
:1001B0000000000F00004A004F000253000000073B
:1001C00000004B0023001C000B0011000000E600A3
:1001D000240018000D00100052004E0025000C00F5
:1001E0000E00360051002C00260012000F003700D0
:1001F0002F002800270013003300380030002900AA
:100200002E0031002D00E500015100002900010001
:1002100001000100010000003A001E02200222023B
:100220002E000E5D3B001F02210223020100C95C6B
:100230003C002F0226022F000100CA5C3D00300264
:100240002702300001000D5D3E003102350035020D
:100250000000C35C010001000000010000000C5D13
:1002600001000100000001000000C25C3F005200DC
:100270005100240200000B5D4000240021001E00FC
:10028000010001004100250022001F003700C55C6D
:1002900042002600230020002700C65C4300250200
:1002A0002E0231002E000100440045000100010033
:1002B0000100000001000100010001000100000038
:1002C0000100010001000100010001000100010026
:1002D000F2000100010001000100F000F100010046
:1002E000F400010001000100F3000100F50001002D
:1002F00001000100010001000000010001000100F7
:1003000000000100000001000100010000000100E8
:1003100000000100010001000100010000000100D7
:100320000100010001000100A9000100010001001D
:100330000100AC00AA00B600010001000100AB0002
:10034000A8000100010001000100010001000100FE
:10035000005C0100AE00010001000000000101018D
:100360000101010101010202020202020202020372
:100370000303030303030304040404040404050542
:100380000505050606060606070707070708080805
:1003900008090909090A0A0A0B0B0B0C0C0C0D0DB4
:1003A0000D0E0E0E0F0F0F1010111111121213134C
:1003B0001414151516161717181819191A1A1B1BC5
:1003C0001C1D1D1E1E1F2020212222232424252621
:1003D00026272829292A2B2C2D2D2E2F3031323259
:1003E000333435363738393A3B3C3D3E3F40414265
:1003F000434445464748494A4C4D4E4F505153544B
:10040000555658595A5B5D5E5F61626465666869FE
:100410006B6C6D6F7072737577787A7B7D7E80827E
:10042000838587888A8C8E8F91939596989A9C9EC7
:10043000A0A2A3A5A7A9ABADAFB1B3B5B7BABCBED7
:10044000C0C2C4C6C9CBCDCFD1D4D6D8DBDDDFE2A4
:10045000E4E7E9EBEEF0F3F5F8FAFDFF0501090238
:10046000A10185020901A10005091901290515004D
:10047000250195057501810295017503810105012D
:10048000093009311581257F9502750881060938E3
:100490001581257F950175088106050C0A3802151E
:1004A00081257F950175088106C0C005010980A1DD
:1004B0000185031A81002A83001601002603009596
:1004C0000175108100C0050C0901A10185041A0104
:1004D000002A9C02160100269C02950175108100DD
:1004E000C005010906A1018505050719E029E715E1
:1004F0000025019508750181020507190029EF15EE
:1005000000250195F075018102050819012905955D
:100510000575019102950175039101C00501090658
:10052000A101050719E029E71500250195087501C6
:1005300081029501750881010507190029FF150041
:1005400026FF009506750881000508190129059503
:100550000575019102950175039101C009023B00E7
:10056000020100A0FA0904000001030101000921B1
:10057000110100012240000705810308000A090457
:100580000100010300000009211101000122C00047
:100590000705820320000A1201100100000008ED87
:1005A000FE071301000102030104033000000016DE
:1005B000034500720067006F0064006F0078002040
:1005C0000045005A00000008035A00530041000093
:1005D00000040309040011241FBECFEFDAE0DEBFE0
:1005E000CDBF13E0A0E0B1E0EEEEFBE502C0059068
:1005F0000D92A03DB107D9F726E0A0EDB3E001C010
:100600001D92A537B207E1F70E94BE1B0C94F52D91
:100610000C9400008F929F92AF92BF92CF92DF9284
:10062000EF92FF920F931F93CF93DF93CDB7DEB777
:1006300028970FB6F894DEBF0FBECDBFFC01F08047
:10064000118183819481892B09F4C0C71F3F21F454
:100650000FEFF01609F4BAC76F0185E0DE011196BD
:1006600001900D928A95E1F7F601228189819A81A4
:10067000222349F00E940322082F682F89819A8142
:100680000E947C2203C00E944F22082F26E0129F66
:10069000F001112434E5039FE00DF11D1124EF0D4D
:1006A000F11DEE0FFF1FEC59FE4F05911491F6015D
:1006B00082810930FDE51F0759F00A302DE5120748
:1006C00009F446C0023C3CE5130709F09BC062C038
:1006D000882309F4FDC09091530581E0890F87704C
:1006E000987F853020F4892B8093530502C0909326
:1006F0005305809153058770EFEF8E9FC001112441
:1007000095958795959587959927909389008093DE
:10071000880090938B0080938A0090938D00809343
:100720008C0040915305509154056091550570918E
:1007300056058FE090E00E94882C6091220670910F
:10074000230680912406909125060E94460DC0C084
:10075000882309F4BDC08091530583FB222720F92B
:1007600091E0922790FB83F980935305992329F018
:1007700040E060E080E00E94951640915305509162
:10078000540560915505709156058FE090E00E94E8
:10079000882C9EC0882309F419C790911701809175
:1007A00053059F3F59F4109217018F7E8093530594
:1007B00040E060E080E00E94951606C09FEF9093B5
:1007C0001701806180935305409153055091540562
:1007D00060915505709156058FE090E028960FB610
:1007E000F894DEBF0FBECDBFDF91CF911F910F9167
:1007F000FF90EF90DF90CF90BF90AF909F908F9041
:100800000C94882C0C30FDE51F0799F028F40B3070
:100810003DE5130751F05CC00D309DE5190789F0E7
:100820000E30EDE51E0781F153C0882309F4CEC6D2
:1008300038C0882309F4CAC681E00E94A1168CEA58
:100840002AC0882309F4C2C681E00E94A11686E569
:1008500080936B068FEF80936C0680E880936D0623
:1008600028960FB6F894DEBF0FBECDBFDF91CF91B3
:100870001F910F91FF90EF90DF90CF90BF90AF90BE
:100880009F908F900C949916882309F49FC681E05D
:100890000E94A1168BE180936B068FEF80936C060C
:1008A000DDCF81E001C088E128960FB6F894DEBF65
:1008B0000FBECDBFDF91CF911F910F91FF90EF90B1
:1008C000DF90CF90BF90AF909F908F900C94A11627
:1008D000F6018281882319F1033EFCE51F07C1F070
:1008E00050F4013E3CE5130781F0023E8CE5180709
:1008F000B1F481E010C0043E9CE5190759F0053EB3
:10090000ECE51E0761F484E006C010924F0505C0B7
:1009100082E001C083E080934F050E94781817FFA2
:1009200071C0F6018281882309F46CC08091290688
:100930008093D0031092290680914F05813071F089
:1009400048F08230C1F08430E1F486EE0E94C52A7E
:1009500088E115C082EE0E94D82A13C083E00E946D
:100960003F2A88E10E94D82A88E10E945E2A83E01B
:100970000E94342A06C082EE0E94D82A87E50E948F
:10098000C52A8FE39CE90197F1F700C000007801C8
:10099000E894F7F85CE0A52EB12CC7010A2C02C040
:1009A000969587950A94E2F7282F2F7041F0822FB1
:1009B00090E02A3010F44D9604C0069702C087E2FA
:1009C00090E00E94C52A94E0A91AB108ECEFAE1697
:1009D000EFEFBE0611F780914F05813039F040F0FE
:1009E000823031F0843051F488E206C08CE204C0D9
:1009F00082EE0E945E2A02C00E94C52A8091D00326
:100A000080932906033FFCE51F07B1F180F4083D00
:100A10003CE51307C9F0093D8CE51807C9F1073D0E
:100A20009CE51907C1F526E241EE61EE10C0053FD5
:100A3000ECE51E0749F120F1063F2CE5120759F5B8
:100A400027E245EE66EE03C027E245EE65EEC601FD
:100A500028960FB6F894DEBF0FBECDBFDF91CF91C1
:100A60001F910F91FF90EF90DF90CF90BF90AF90CC
:100A70009F908F900C94C11826E241EE60EEE7CF74
:100A800027E245EE64EEE3CF26E241EE62EEDFCFF1
:100A900028E241E0DBCFF6019281992309F44AC1B3
:100AA0001092D1030230FCE51F0708F42DC1063176
:100AB0002CE5120738F098012A5F3C4527303105B4
:100AC00008F022C10E94322190936605809365054B
:100AD0000F303CE5130709F4CFC008F042C00830DE
:100AE0009CE5190709F4A8C0F0F40430FCE51F07E1
:100AF00009F490C068F402303CE5130709F486C09D
:100B000003301C4509F0DFC0809165058260D9C0C3
:100B100006309CE5190709F487C008F089C0809168
:100B200065058860CEC00B30FCE51F0709F495C051
:100B300068F409303CE5130709F482C00A301C450B
:100B400009F0C1C080916505886080C00D309CE5CA
:100B5000190709F486C008F087C0809165058D7F6C
:100B6000B0C00A3FFCE51F0709F457C050F5023139
:100B70003CE5130709F488C068F400319CE51907C7
:100B800009F47EC001311C4509F09DC080916505C6
:100B90008F7B97C00431FCE51F0709F487C008F478
:100BA00079C005311C4509F08EC08091650582FB36
:100BB000222720F991E0922790FB82F990FB83F99C
:100BC00080C00D3F8CE5180709F452C058F40B3F64
:100BD000ECE51E0729F10C3F1C4509F074C080911B
:100BE000660560C00F3F2CE5120709F458C080F17C
:100BF00001151D4509F067C080916605982F9095F5
:100C000091708E7F892B90FB81F94DC08091650595
:100C1000816057C08091650519C0809166051BC031
:100C20008091660582603FC080916505806149C002
:100C300080916505806245C080916505806441C0F2
:100C40000E941F2A8091650580683BC0846039C07E
:100C5000809166058260816026C0809165058E7FE7
:100C600030C08091650519C080916505877F29C0D6
:100C7000809166058D7F17C0809165058F7E21C0AC
:100C8000809165058F7D1DC00E941F2A809165059A
:100C90008F7717C080916505877F8B7F12C0809109
:100CA00066058D7F8E7F809366050DC00E941F2A8A
:100CB0008091650587FB222720F991E0922790FB20
:100CC00087F980936505609165051091660584E05C
:100CD00090E00E94762C612F81E290E00E94762CB9
:100CE00028960FB6F894DEBF0FBECDBFDF91CF912F
:100CF0001F910F91FF90EF90DF90CF90BF90AF903A
:100D00009F908F900C941F2A809129060631FCE554
:100D10001F0789F58A7A91E009F490E09093D20355
:100D2000911102C069E201C065E383E995E00E9488
:100D3000FA200DC006311C4509F0F7C08091D2039E
:100D4000811142C469E283E995E00E94CF20289690
:100D50000FB6F894DEBF0FBECDBFDF91CF911F91CC
:100D60000F91FF90EF90DF90CF90BF90AF909F904A
:100D70008F900C94BD218272F801E25CFC45E43155
:100D8000F10508F079C0EA5AFF4F0C94C22C9091FB
:100D90006A0681E0892780936A061092080160CD77
:100DA00047EF56E16DE077E12CC04DE057E167EF8A
:100DB00076E127C049EE56E160EF76E122C040EFD0
:100DC00056E169EE76E11DC045ED56E16FED76E145
:100DD00018C04FED56E165ED76E113C041EC56E1E8
:100DE0006BEC76E10EC04BEC56E161EC76E109C0AC
:100DF0004DEA56E167EB76E104C047EB56E16DEA58
:100E000076E128960FB6F894DEBF0FBECDBFDF9116
:100E1000CF911F910F91FF90EF90DF90CF90BF90F7
:100E2000AF909F908F900C948F1665E082E00EC07B
:100E300068E086E00BC06EE089E008C064E18FE006
:100E400005C067E185E102C062E289E128960FB63C
:100E5000F894DEBF0FBECDBFDF91CF911F910F91F0
:100E6000FF90EF90DF90CF90BF90AF909F908F90CA
:100E70000C94231783E218CD0115ECE51E07C1F091
:100E80000E3D1C4509F051C028960FB6F894DEBF00
:100E90000FBECDBFDF91CF911F910F91FF90EF90CB
:100EA000DF90CF90BF90AF909F908F900C94432194
:100EB0000E941F2A0FEF14E32CE001501040204045
:100EC000E1F700C00000F89481E08093E00080E248
:100ED0008093D8001092C9008FE19EE40197F1F74A
:100EE00000C000001DBA109268001CBC10BE1FBAE2
:100EF00010927A0010926E0010926F0010927100A2
:100F0000109272001092C9001092BC0014B817B869
:100F10001AB81DB810BA1092BC0015B818B81BB892
:100F20001EB811BA0C94003F51C3F6010081118123
:100F3000992349F0C8010E940322F82E682FC801A6
:100F40000E947C2204C0C8010E944F22F82EB801E2
:100F50008F2D0E949C0B182F382FF601258122958A
:100F60002F70028101111092280680912606877049
:100F7000A9F0002399F080E2810F883078F082E0B8
:100F80002F8338879E830E94DD22809126068770FA
:100F9000EE24E3942F8138859E818111E12CA92EC6
:100FA000A2944FE0A422B12CFCE0AF16B10408F0EB
:100FB000D9C2F501E659FF4F0C94C22C892F807FCE
:100FC0009F70F92E882319F0F29480EFF822002305
:100FD000B9F0FF2009F457C280E2810F883010F089
:100FE000311106C090912906F92AF092290605C010
:100FF00090912806F92AF09228060E94BD2143C24A
:10100000812F38870E945E2A3885FF2009F4AAC202
:10101000105EF094183010F0311106C0909129063E
:10102000F922F092290605C090912806F922F09243
:1010300028060E94BD2196C2492F407F892F8F70BC
:10104000403211F08295807F332319F03130E9F07E
:1010500025C0002381F030912A06222351F021304F
:1010600041F4982F932B391709F47CC290932A06E8
:1010700079C2832B17C0222319F0213009F472C2E0
:101080008E830E94B7218E811DC0002321F0223063
:1010900008F068C207C0211165C214C0002329F0FE
:1010A0002111F1C10E94542A5DC2222359F0193343
:1010B00009F0FBC10FEF27EE33E001502040304034
:1010C000E1F7F1C10E94492A4DC2292F26952695A4
:1010D000237030E02115310521F02130310559F020
:1010E00041C2002319F0812F937002C080E090E08C
:1010F0000E946D1640C2002319F0812F937002C028
:1011000080E090E00E94571636C20023F9F0153FA8
:1011100051F0163F71F0143FA9F48091D3039091E0
:10112000D40381600BC08091D3039091D40382607B
:1011300005C08091D3039091D40384609093D4032D
:101140008093D303812F0E94A01F1EC0153F51F032
:10115000163F71F0143FA9F48091D3039091D4030A
:101160008E7F0BC08091D3039091D4038D7F05C0F7
:101170008091D3039091D4038B7F9093D403809379
:10118000D303812F0E94D61E0E949020F4C1892F84
:10119000837009F070C00111ECC1812F8295869592
:1011A0008770880F880F412F4F7050E060E070E02B
:1011B0004A015B01082E04C0880C991CAA1CBB1CA8
:1011C0000A94D2F714FF12C00FE010E020E030E0E4
:1011D00004C0000F111F221F331F8A95D2F7B901D7
:1011E000A801409550956095709503C040E050E08F
:1011F000BA01969596959370892F90E0823091056B
:1012000029F183309105C9F000912B0610912C062D
:1012100020912D0630912E06019759F04829592921
:101220006A297B29CB01BA0160237123822393238E
:101230000AC0802A912AA22AB32ACB01BA016829BE
:1012400079298A299B290E94172393C14829592962
:101250006A297B2980912B0690912C06A0912D065E
:10126000B0912E068A019B01082719272A273B27C0
:10127000C901B801E8CF002319F0892F817001C09E
:101280008695882309F475C1812F8295869587708C
:10129000880F880F412F4F7050E060E070E04A01E6
:1012A0005B01082E04C0880C991CAA1CBB1C0A9464
:1012B000D2F714FF12C00FE010E020E030E004C0CD
:1012C000000F111F221F331F8A95D2F7B901A80101
:1012D000409550956095709503C040E050E0BA018C
:1012E000969596959370892F90E082309105E9F05C
:1012F0008330910579F10091220610912306209107
:10130000240630912506019759F0482959296A2960
:101310007B29CB01BA01602371238223932320C050
:10132000802A912AA22AB32A15C0482959296A2954
:101330007B298091220690912306A0912406B091EA
:1013400025068A019B01082719272A273B27C9015F
:10135000B80106C0CB01BA01682979298A299B29DD
:101360000E94AC2206C19F70F92E002339F0892F0C
:101370000E94F622812F0E94542AFBC0812F0E94D6
:10138000492A8F2D0E94B822F4C0812F323FC9F123
:1013900028F4303F49F0313F79F170C0333FC1F15B
:1013A000343F09F44DC06AC0002311F12111DAC0A5
:1013B000292F2F7181E090E0A0E0B0E0AC01BD01E9
:1013C00004C0440F551F661F771F2A95D2F78091DE
:1013D000220690912306A0912406B09125068A0149
:1013E0009B01082719272A273B27C901B80125C0D7
:1013F000223008F0B7C0DCCF002329F0892F8F718D
:101400002EC00023D9F3892F8F710E94B822AAC061
:10141000002381F0292F2F7181E090E0A0E0B0E05F
:10142000BC01CD0104C0660F771F881F991F2A9544
:10143000D2F703C060E070E0CB010E94AC2292C002
:10144000002381F0192F1F71812F0E94F62228E0BE
:10145000129FC0011124836080932606812F0E9471
:10146000F62280C081E02F830E94DD222F8122306E
:1014700008F478C082E00E94DD2274C0002339F0B5
:10148000222309F4BBCF812F0E94D82A6BC02223CC
:1014900009F4B9CF893349F43FEF87EE93E0315037
:1014A00080409040E1F700C00000812F0E945E2A3A
:1014B00059C0323FB1F028F4303F49F0313FF9F0E4
:1014C00028C0343FB9F058F0353F71F022C00023F6
:1014D00009F451C09091700681E0892708C081E02D
:1014E00008270093700647C0011145C081E0809332
:1014F000700641C001113FC0109270063CC000232D
:1015000029F080916F06882329F329C0222311F343
:1015100032C080916F062223C1F0882341F0909160
:10152000700681E089278093700610926F06812FE4
:10153000002319F00E94D82A1EC00E945E2A86E06D
:10154000F60111928A95E9F716C08823A1F00111DE
:1015500012C09091700681E08927809370061092E6
:101560006F0609C0F8E0AF1AB10804E0A016B10494
:1015700010F40E948316EE2049F18091260680FD2A
:1015800025C0F60112828595859585950E94F622E3
:10159000C6010E940A03809126068595859585954A
:1015A00028960FB6F894DEBF0FBECDBFDF91CF9166
:1015B0001F910F91FF90EF90DF90CF90BF90AF9071
:1015C0009F908F900C94B82265E3BDCB28960FB600
:1015D000F894DEBF0FBECDBFDF91CF911F910F9169
:1015E000FF90EF90DF90CF90BF90AF909F908F9043
:1015F0000895CF93E82F873080F58091090190916D
:101600000A01892B09F047C0CE2F64E670E080E420
:101610000E946B2B90930A0180930901892BD1F4CE
:1016200064E670E082E10E94C22B90930A018093ED
:101630000901892B79F481E090E001C0880FCA95F7
:10164000EAF764E670E080950E94C22B90930A014D
:1016500080930901CF910C943E2C90E0FC013797C8
:10166000E730F105C0F4EA58FF4F0C94C22C209AE1
:10167000289811C0219A29980EC0229A2A980BC046
:10168000239A2B9808C0529A5A9805C0539A5B988F
:1016900002C03E9A4698CF910895CF93873008F0C4
:1016A0003FC08091090190910A01892B09F041C046
:1016B00064E670E080E40E946B2B90930A018093B3
:1016C0000901892B11F0C0E027C064E670E083E1D6
:1016D0000E94C22B90930A0180930901892B99F7EC
:1016E00064E670E081E40E946B2B90930A01809382
:1016F0000901892B41F784E690E00E94F22B97FFC5
:1017000005C090930A0180930901DDCFC82FC095D1
:1017100010920A01109209010E943E2C8C2F0AC0DF
:101720009FB18FB1807F869586959370892B809528
:1017300001C080E0CF910895CF93DF9326E0729FA0
:10174000F001112444E5849FE00DF11D1124E60F02
:10175000F11DEE0FFF1FEC59FE4FC591D491CE0144
:10176000C238D10569F1B0F4C133D10509F475C0AF
:1017700048F4C932D10509F469C0CA32D10509F467
:1017800073C085C0C533D10509F459C0C933D1052B
:10179000B9F07DC0C33ED10571F138F4C03ED1052A
:1017A000B1F0C23ED10511F172C0C63ED105B9F10A
:1017B000C73ED105C9F1C43ED10509F068C024C0B7
:1017C0004091650540FD5DC041FD5BC060C020915A
:1017D000650520FD50C02091660520FF54C1809111
:1017E000650584FD4EC183EE90E04DC120916505F5
:1017F00022FF49C1F4CF8091650582FD3FC08091F1
:10180000660580FD3EC0EBCF2091660521FF3BC100
:101810008091650584FD35C187EE90E034C120914B
:10182000650523FF30C1F4CF8091650583FD2CC091
:101830008091660581FFECCF84EE90E024C1209179
:10184000650525FF20C189E290E01DC12091650555
:1018500025FF19C185E390E016C12091650526FF9B
:1018600012C18AE290E00FC12091650526FF0BC1ED
:1018700081E390E008C189E390E005C182EE90E049
:1018800002C180EE90E0FFC086EE90E0FCC0C11582
:1018900052E5D50708F074C0C11521E5D20728F03C
:1018A0009C2F8827816F906AEEC0C83ED10570F5E5
:1018B000C03ED10508F0E7C0C83AD105B8F4C53A32
:1018C000D10550F08C2F855AE82FF0E0E75EFE4FEF
:1018D000808190E09064D7C0C130D10509F4D3C0B5
:1018E00008F4CFC0249708F4CCC0CDC0CF3BD105BD
:1018F00008F0C7C08C2F885AE82FF0E0EE0FFF1FCA
:10190000E45EFE4F808191819464BDC0C11540E2C8
:10191000D40760F4C11551E0D50708F0B4C0C03F4A
:10192000D10508F4AEC0CE019065ADC0C11580E40C
:10193000D80708F4A6C0C11590E5D90720F4CE0158
:101940009F70906AA0C04C2F437081E090E002C06D
:10195000880F991F4A95E2F79C68AE01F4E056950E
:101960004795FA95E1F74370942B2C2F2F7026950D
:10197000269550E2259F90011124822B932B83C042
:10198000C11526E5D207E8F5C11545E5D40748F0AD
:101990008C2F0E947E188F7190E0982F882790627C
:1019A00072C0C11554E5D50728F09C2F8827846F95
:1019B000906A69C08C2F86958695AE014370552735
:1019C000C115D34578F490E2899F9001112481E0FC
:1019D00090E002C0880F991F4A95E2F7822B932B63
:1019E0009C6851C090E2899F9001112481E090E0B1
:1019F00002C0880F991F4A95E2F7822B932B9A68B1
:101A000042C0C1152AE5D20780F5C11549E5D407C2
:101A100018F18C2F8F700E947E189E0194E03695ED
:101A200027959A95E1F72F7030E0322F2227306901
:101A3000A901482B0FC0CE0190568115904208F5A0
:101A40008D2F8F710E947E189E01332730628F7117
:101A5000A901582BCA0117C0C11558E5D50788F050
:101A60009C2F8827806F906A0EC0C1158BE5D80720
:101A700040F0C1159CE5D907F0F6CE019927906694
:101A800002C080E090E0DF91CF910895CF92DF9285
:101A9000EF92FF920F931F936C01EE24FF24C11469
:101AA000D104E104F10411F0E0E103C06B017C0119
:101AB000E0E033272F2D1E2D0D2D011511052105D9
:101AC000310519F0E85F6801790197018601F4E0BA
:101AD0003695279517950795FA95D1F701151105B4
:101AE0002105310519F0EC5F680179019701860144
:101AF00052E036952795179507955A95D1F7011518
:101B000011052105310519F0EE5F68017901970192
:101B100086013695279517950795012B022B032BE8
:101B200009F0EF5F56985E9825982D9826982E9884
:101B300027982F980E2F10E0F8013197E730F10524
:101B4000A8F4E358FF4F0C94C22C259A2D9A0EC08E
:101B5000259A2D9A269A2E9A09C0259A2D9A04C064
:101B6000259A2D9A269A2E9A279A2F9A1F910F918D
:101B7000FF90EF90DF90CF90089580E290E09093F7
:101B80000A01809309018091DC0381110EC00E943B
:101B9000652B81E08093DC032FEF83ED90E32150F0
:101BA00080409040E1F700C0000064E670E080E40F
:101BB0000E946B2B90930A0180930901892B09F0F5
:101BC0004EC064E670E080E00E94C22B90930A0150
:101BD00080930901892B09F042C064E670E080E03F
:101BE0000E94C22B90930A0180930901892BB9F5B9
:101BF00064E670E08FE30E94C22B90930A01809309
:101C00000901892B61F50E943E2C64E670E080E4B6
:101C10000E946B2B90930A0180930901892BF9F4A0
:101C200064E670E08CE00E94C22B90930A018093DE
:101C30000901892BA1F464E670E080E00E94C22BC8
:101C400090930A0180930901892B49F464E670E0BE
:101C50008FE30E94C22B90930A01809309010E9496
:101C60003E2C809109010895CF93DF9356985E989A
:101C700025982D9826982E9827982F98C8E8D0E078
:101C80008FEF90E099838883AAE8B0E011969C9347
:101C90008E93ECE8F0E091838083259A2D9A2FEFC4
:101CA00080E792E0215080409040E1F700C00000C2
:101CB000269A2E9A2FEF80E792E0215080409040A4
:101CC000E1F700C00000279A2F9A2FEF80E792E0FB
:101CD000215080409040E1F700C0000025982D98E9
:101CE0002FEF80E792E0215080409040E1F700C064
:101CF000000026982E982FEF80E792E02150804038
:101D00009040E1F700C0000027982F98809153057C
:101D100087702FEF829FC001112495958795959527
:101D2000879599279983888311969C938E939183A5
:101D3000808356985E9825982D9826982E982798F7
:101D40002F98DF91CF91089584B1807F84B985B1B8
:101D5000807F85B98AB1837F8AB98BB1837F8BB944
:101D60003E984698089580B38C7080BB81B3836F92
:101D700081BB08954F925F926F927F928F929F9254
:101D8000AF92BF92CF92DF92EF92FF920F931F9389
:101D9000CF93DF931F92CDB7DEB780910901909169
:101DA0000A01892BA1F08091DB038F5F8093DB0315
:101DB00081110DC00E94BD0D90E090930A018093A7
:101DC0000901892B21F40E943B170E94340E47E53C
:101DD000E42E45E0F42E5EE5C52E55E0D52E5701E4
:101DE000912C10E007E0090D892D0E94F90A802F3F
:101DF0000E94F90A892D0E944D0BD5019C919817DC
:101E000021F08C938824839401C0812C802F0E9420
:101E10004D0BF6019081981719F0808381E001C085
:101E200080E08829182B0E94A40E9394FFEFAF1A2C
:101E3000BF0A2FEFC21AD20A37E09312D3CF0E9403
:101E400084206AEF70E00E949A2CBC01482F809198
:101E5000D6038823D9F11092D603E0914D05F09175
:101E60004E05DF011E9690E08BEF3AEFA32EB12CCA
:101E700020812B3F99F0C22ED12C421720F09B01DC
:101E80002C193D0905C095012C193D09260F371F56
:101E90002E31310514F0808301C091E03196EA17AC
:101EA000FB0731F79093D603111102C0911110C0B6
:101EB0001092D50360914D0570914E059091D60317
:101EC000EAE6F5E080E03EE03E0F32C01111F0CFCF
:101ED0008091D5038111ECCF6091D7037091D80325
:101EE0008091D9039091DA030E942E202FB7F894A5
:101EF000C0902F06D0903006E0903106F090320668
:101F00002FBFC092D703D092D803E092D903F092AA
:101F1000DA034090660650906706609068067090FD
:101F20006906AFEF4A165A066A067A06D1F43AC035
:101F3000D7012D917D015081521749F0DB015C9151
:101F40005B3F21F44C93208391E001C081E06F5FFF
:101F50007F4F31963E13ECCF9093D6038093D503F9
:101F6000BBCFAB01BC01662777274A015B01809498
:101F70009094A094B09484149504A604B70420F41B
:101F80008FEF9FEFDC0106C0DB01CA01840D951DB8
:101F9000A61DB71D8093660690936706A0936806FA
:101FA000B093690680919205811109C090916A06EB
:101FB000892F837021F0B92EB694B69401C0B12C4C
:101FC000809108018130A1F038F0823009F495C188
:101FD000833009F49FC1AFC110921601C09262060E
:101FE000D0926306E0926406F092650681E08FC1AC
:101FF00080910701B81210C080916A06837090E04A
:102000002091060130E051E040E08217930709F487
:1020100050E0252F342F02C021E030E0822F817064
:10202000809318018B2D90E08631910508F053C103
:10203000FC01EC57FF4F0C94C22C90911601232BFE
:1020400009F449C1F92EFF0CFF0CF90E05E00F0D44
:10205000013308F000E3F01608F0FEC020E040E095
:1020600060E08F2D90E00E949716F394F4CF90914A
:102070001601D92EDD0CDD0CD90E05E00D0D013356
:1020800008F000E360916B0670916C0680916D061C
:102090000E94E417F62EE82ED01608F0DDC0ED2DD4
:1020A000F0E0DF01A259BC4F8C9190911701982369
:1020B00041F02E2D4F2D672FCF0179830E94971667
:1020C0007981D394E9CF80911601A82EAA0CAA0C8D
:1020D000A80E35E03A0D313308F030E3D0906C06AD
:1020E000C0906D0620916E0600E4029F012D112420
:1020F000A31628F5EA2CF12CF701E259FC4F808158
:10210000909117019823C9F0F701EE0FFF1FE15FCF
:10211000FC4F908192959F7060916B06099F600DB6
:1021200011247D2D8C2D39830E94E417462F282FF2
:10213000672FC7010E9497163981A394D9CF81E0F8
:10214000303308F4C9C0C7C080911601A82EAA0C6C
:10215000AA0CA80E05E00A0D013308F000E3D090A8
:102160006C06C0906D0620916E0630E4329F312DD2
:102170001124A01608F070C0EA2CF12CF701E259E6
:10218000FC4F9081809117019823E9F0F701EE0F41
:10219000FF1FE25FFC4F6081369FB001112495E084
:1021A000759567959A95E1F780916B06680F7D2D7F
:1021B0008C2D39830E94E417462F282F672FC701E3
:1021C0000E9497163981A394D4CF80911601D82EFE
:1021D000DD0CDD0CD80E05E00D0D013308F000E339
:1021E000F0906B0670916C06E0906D0680916E0623
:1021F000682F669566956695809162069091630654
:1022000079830E94D9170E9457178058982F97FDFD
:102210009195990F292F3E2D239F212D11246F2D4C
:102220007981822F0E94E417F62EE82ED016A0F4B2
:10223000ED2DF0E0DF01A259BC4F8C919091170178
:10224000982341F02E2D4F2D672FCF0179830E94C7
:1022500097167981D394EACF81E00033E8F13BC04F
:102260008CEF92E11AC080ED92E117C085ED93E109
:102270001FC086EB93E11CC08BE993E11EC080E890
:1022800093E11BC08EEC92E108C085EC92E105C0A1
:102290008CEB92E102C081EA92E10E9464241CC0AE
:1022A00082E992E10AC08AEA97E102C08FE693E1EF
:1022B0000E94082411C08BE593E10E948C230CC07E
:1022C00084E692E105C082E392E102C084EF91E1ED
:1022D0000E942B2301C080E0909116019F5F909394
:1022E0001601811128C082E08093080180911801B5
:1022F000811121C0BB2051F01EC0B0920701809116
:102300006A068370809306010E94251483E08093FF
:10231000080111C0609162067091630680916406A5
:10232000909165060E942E206A3171058105910504
:1023300010F010920801812F0F90DF91CF911F9123
:102340000F91FF90EF90DF90CF90BF90AF909F9054
:102350008F907F906F905F904F900895803391059C
:1023600040F5880F991F880F991FFC01EE5AFE4F08
:1023700052813381808183707181A82FB0E0E0E9C0
:102380008E9FC00111248D509C4FFC01E70FF11D61
:10239000B4976083FC01E50FF11DB4974083830F70
:1023A000911DFC01B4972083FD01EF50FC4F81E0AB
:1023B00080830895FF920F931F93CF93DF93182F7D
:1023C000062FF42EC0E0D0E02F2D402F612FCE013C
:1023D0000E94AE112196C033D105B1F7DF91CF91A4
:1023E0001F910F91FF9008950F931F9310E0F80134
:1023F000EE0FFF1FE25FFC4F9081905797FD919584
:10240000000F111FF801E15FFC4FE081F0E0B09791
:10241000DF01AA0FBB1F8D010E0F1F1F2003D0016C
:10242000219FB00D1124E8E3F0E0E91BF10997FDCD
:10243000F3959F01220F331F89010E0F1F1F4003C9
:102440009001419F300D11242A0F3B1F37FF02C01E
:1024500021583F4F220F232F221F330B620F1F9152
:102460000F9108950F931F93522F10E0F801EE0F74
:10247000FF1FE15FFC4FE081F0E0B097EE0FFF1F20
:102480009F015203D001539FB00D1124000F111F63
:10249000F801E25FFC4F008110E000571109000FC6
:1024A000111F40039001419F300D11242A0F3B1F43
:1024B00037FF02C021583F4F220F232F221F330B1B
:1024C000620F1F910F9108950F931F93522F10E0E9
:1024D000F801EE0FFF1FE15FFC4FE081F0E0B097E5
:1024E0009F015203D001539FB00D1124000F111F03
:1024F000F801E25FFC4F008110E000571109400332
:102500009001419F300D11242A0F3B1F37FF02C05D
:1025100021583F4F220F232F221F330B620F1F9191
:102520000F910895EF920F931F9393E0099F8001FD
:102530001124159507956E2D600F1F910F91EF9047
:10254000089550E0FA01EE0FFF1FE15FFC4F90810C
:10255000905297FD9195440F551FFA01E25FFC4F91
:10256000408150E0FA01E21BF1099F01290F311D62
:1025700097FD3A95620F0895E42FF0E0EE0FFF1FEC
:10258000E15FFC4F6081621B0895E42FF0E0EE0FE5
:10259000FF1FE25FFC4F6081621B0895622F089568
:1025A000E42FF0E0EE0FFF1FE25FFC4F408134EEBE
:1025B000439F412D1124E82FF0E050E0445E5F4F2F
:1025C000DA01A21BB1099D01B7FF03C03195219526
:1025D000310993E0220F331F9A95E1F7AF01421BB7
:1025E000530B9A0157FF02C020E030E0582F259F7F
:1025F000212D1124822F0895E42FF0E0EE0FFF1F0C
:10260000E25FFC4F408134EE439F412D1124E72FC0
:10261000F0E050E0445E5F4FDA01A21BB1099D017A
:10262000B7FF03C031952195310993E0220F331F85
:102630009A95E1F7AF01421B530B9A0157FF02C075
:1026400020E030E0279F212D1124722F0895FC01F6
:10265000CB01309721F477FF2CC080E808959F01CB
:10266000F7FF04C0222733272E1B3F0BBC01621B40
:10267000730B280F391F97FD0DC0CB0145E0880F64
:10268000991F4A95E1F7B9010E94AE2C80E2861BA2
:10269000682F09C0C90125E0880F991F2A95E1F725
:1026A0000E94AE2C605A862FF7FF02C081950895D4
:1026B000089580E00895EF920F93CF93DF93D72F83
:1026C000C82FC9010E19BA010E942713602F681B79
:1026D0007D2F8C2FDF91CF910F91EF9008950F9365
:1026E000CF93DF93D72FC82FC901BA010E942713B8
:1026F000682F600F7D2F8C2FDF91CF910F91089560
:10270000EF920F931F93CF93DF93D62FC72F182FDE
:10271000C9010E19010FBA010E942713081B019F5E
:10272000012D11246D2F7C2F802FDF91CF911F91D0
:102730000F91EF900895EF920F931F93CF93DF9334
:10274000D62F172FC82FC9010E19070FBA010E94E3
:102750002713081B702F719F712D11246D2F8C2F43
:10276000DF91CF911F910F91EF900895FF920F93FA
:102770001F93CF93DF93F62ED72F182FC901C12FA8
:10278000C01BBA010E942713982F880F980F2C2F77
:10279000291B219F212D11246F2D7D2F822FDF9149
:1027A000CF911F910F91FF900895FF920F931F9368
:1027B000CF93DF93F62E172FD82FC901C72FC01B39
:1027C000BA010E942713982F880F980FC91B7C2FDE
:1027D000719F712D11246F2D8D2FDF91CF911F913E
:1027E0000F91FF900895EF92FF921F93CF93DF9385
:1027F0007B01182F110FC0E0D0E08C2F8C5D8093EF
:10280000DD0320E030E0F901EC0FFD1FEE0DFF1DB0
:102810008081F901E352FC4F81832F5F3F4F2031CC
:10282000310589F724E630E041E150E06DED73E0D9
:10283000812F0E94172C6096C039D105F1F6DF91E7
:10284000CF911F91FF90EF9008958091F10388231D
:1028500029F063EF73E084E70E94F3131092F10311
:102860008091F203882329F063E874E087E70E94EF
:10287000F3131092F2030895EDEDF3E060834183CA
:1028800024E630E042E050E0BF01880F0C94172CA2
:10289000FF920F931F93CF93DF93E62FF0E0E95C55
:1028A000FA4F90819923B1F0F82E82E1689FE00100
:1028B000112400E010E0F801EC0FFD1FED5EFA4F6F
:1028C0004081602F8F2D0E943C140F5F1F4F0231FB
:1028D000110589F7DF91CF911F910F91FF90089516
:1028E000CF93DF93C82F4BE06DEF0E943C1440E084
:1028F0006AE08C2F0E943C148FE39CE90197F1F76A
:1029000000C0000040E060E08C2F0E943C1440E0DA
:1029100061E08C2F0E943C1440E066E08C2F0E9406
:102920003C1440E06DEF8C2F0E943C14D0E040E05E
:102930006D2F8C2F0E943C14DF5FD231C1F740E035
:102940006D2F8C2F0E943C14DF5FD432C1F740E022
:102950006D2F8C2F0E943C14DF5FD43BC1F74BE0FE
:102960006DEF8C2F0E943C1441E06AE08C2F0E9496
:102970003C1440E06DEF8C2FDF91CF910C943C1410
:102980006F927F928F929F92AF92BF92CF92DF927F
:10299000EF92FF920F931F93CF93DF930E94652BCB
:1029A00084E70E94701487E70E947014E5E5EE2E1C
:1029B000E1E0FE2EC12CD12CF2E17F2EA8E08A2E80
:1029C000912CAA24A394B12C66246394F701329726
:1029D000608170E0CB0184973196C081D0E0A497EC
:1029E000D701EC91F0E0B497D601AA0FBB1FAA0F54
:1029F000BB1FAE5ABE4F2C91237030E0AC0197FF45
:102A000002C0495F5F4F63E0559547956A95E1F7CE
:102A1000729E8001739E100D1124040F111D0D5E16
:102A20001A4FB4010E94AE2CA50102C0440F551FDD
:102A30008A95E2F7CA01D8019C91892B8C93CE012B
:102A4000D7FD079653E0959587955A95E1F7729EC5
:102A50008001739E100D1124080F111D0D5E1A4F79
:102A6000CE01B4010E94AE2CA50102C0440F551F37
:102A70008A95E2F7CA01D8019C91892B8C93CF01EA
:102A8000F7FD079643E0959587954A95E1F7729E85
:102A9000E001739ED00D1124C80FD11DCD5EDA4F19
:102AA000CF01B4010E94AE2CA50102C0440F551FF6
:102AB0008A95E2F7CA019881892B8883F901E95C3C
:102AC000FA4F60825FEFC51AD50A84E0E80EF11C68
:102AD000A0E3CA16D10409F079CF60E084E70E9430
:102AE000481461E087E7DF91CF911F910F91FF902C
:102AF000EF90DF90CF90BF90AF909F908F907F909E
:102B00006F900C944814EF92FF920F931F93CF9302
:102B1000DF93CDB7DEB767970FB6F894DEBF0FBE71
:102B2000CDBF4B8B5C8B6D8B7E8B8F8B0E891F8902
:102B300001151105C1F15F3F11F44F3FA1F1E42EE2
:102B4000F12CA1E0B0E0042E01C0AA0F0A94EAF72C
:102B5000852F90E0662319F02091700606C09C0135
:102B6000215C3A4FF90120812A232223A9F046E073
:102B7000489F9001499F300D1124F701E20FF31F88
:102B8000EE0FFF1FEE5EFD4F40815181FC01E15CC5
:102B9000FA4F9081A92B06C0FC01E15CFA4FA09589
:102BA0008081A823A08386E0FE013D96DF01982F57
:102BB0001D929A95E9F74D875E876F87198B088B71
:102BC000DE01179601900D928A95E1F7CE010796E6
:102BD0000E943A28811137C086E0FE013796DE0157
:102BE000119601900D928A95E1F7FF81E8856A853B
:102BF0007B856115710539F1EF3F11F4FF3F19F144
:102C00002091B90530E0C90101968770992740915C
:102C1000EA0550E08417950779F1F983EA837D830B
:102C20006C8396E0929FD001939FB00D1124A6541F
:102C3000BA4FFE01319601900D929A95E1F780937B
:102C4000B9050E94212316E08091EA059091B9050B
:102C5000891701F1189FC001112486549A4F0E94D0
:102C60003A288823B9F08091EA0590E001968770B0
:102C700099278093EA05E8CF0E941F2A1092B90590
:102C80001092EA05E3EBF5E086E0DF011D928A95FC
:102C9000E9F7D9CF67960FB6F894DEBF0FBECDBF68
:102CA000DF91CF911F910F91FF90EF9008952091A8
:102CB0003D0530913E058217930771F090933E05D4
:102CC00080933D05E0916705F0916805309721F00C
:102CD0000084F185E02D0994089520913B05309101
:102CE0003C058217930771F090933C0580933B0558
:102CF000E0916705F0916805309721F00680F78133
:102D0000E02D09940895E0916705F09168053097EA
:102D100021F00190F081E02D099480E0089588234E
:102D200011F0FA0101C0FB0109940C94DA110C9422
:102D3000AE1145E050E06CE170E08AE696E00C945C
:102D4000662CEAE6F6E0880F880F90819370892B55
:102D50008083109208010C949916EAE6F6E024812B
:102D600030E1231B08F420E024830C949916EAE652
:102D7000F6E0248130E1230F08F42FEF24830C9434
:102D80009916EAE6F6E0238130E1231B08F420E0FF
:102D900023830C949916EAE6F6E0238130E1230FB1
:102DA00008F42FEF23830C949916EAE6F6E02281CB
:102DB00030E1231B08F420E022830C949916EAE604
:102DC000F6E0228130E1230F08F42FEF22830C94E8
:102DD0009916EAE6F6E08181885081830C94991671
:102DE000EAE6F6E08181885F81830C9499169091E0
:102DF0006A06892F86958695815C8F7393708823E8
:102E000021F0880F880F892B02C0892F8465809359
:102E10006A06109208010C94991690916A06892FFF
:102E2000869586958F5F8F739370863120F4880F17
:102E3000880F892B02C0892F846080936A061092C4
:102E400008010C94991690916A0696959695981794
:102E500020F0961710F40C940D170C94A116EAE6C6
:102E6000F6E081E3808311828FEF828383838FE793
:102E700084830C9499160E94C01480E090E00E9414
:102E8000602C8F3E9E4F21F00E9443210E942F17FD
:102E900045E050E06CE170E08AE696E00E94422C4A
:102EA00080916A068C7F11F40C942F170895482F97
:102EB000982F46FD9095E92FEF739F7046FD9F5F19
:102EC000E295EF70EE0FF0E0E65BFE4F2181299F67
:102ED000802D212D112482958F702295207F822BA9
:102EE0003081982F930F892F47FD81958058089541
:102EF000BC018230910508F40895613E8EE17807A7
:102F000048F49B0195E0369527959A95E1F748E0BE
:102F1000420F01C04FEF91E0242F30E0290F311D07
:102F200035952795229FF001239FF00DF00D112478
:102F30006E177F0718F44FEF420F05C02F3F310582
:102F400039F091E0920F491738F78FEF890F089504
:102F50008FEF08950F931F93CF93DF931F92CDB7F9
:102F6000DEB7182F47FD4195E8E3F0E0CF01841B61
:102F7000910947FD9395889FF001899FF00DF00D11
:102F80001124229FC001239F900D900D11248E0FBC
:102F90009F1F79830E947817982F880F980F692FA9
:102FA000600F7981812F0F90DF91CF911F910F9149
:102FB000089520E030E0A901869F412D969F400DA5
:102FC000511D1124CA010895AF92BF92CF92DF9292
:102FD000FF920F931F93CF93DF93D62E372FE82FB7
:102FE000F0E0711106C0E45AFC4F6491762F862FF1
:102FF00075C0C72FD0E0E45AFC4F2491F22E022F67
:1030000010E046E0649FC0011124EFEFF0E0BF0143
:103010000E949A2CAB016BEA6403C001659F900D7E
:1030200011248D0D911D8D0D911D982F990F890FD4
:10303000DF01AC1BBD0B0A9FB0010B9F700D1A9FE7
:10304000700D1124972F839FD0011124AB2FBB2724
:103050006F01CA1ADB0A0C9DD0010D9DB00D1C9D9D
:10306000B00D11245F01A81AB108AC9E6001AD9E9D
:10307000D00CBC9ED00C1124CD2DDD27EC1BFD0BFC
:103080000E9FE0010F9FD00D1E9FD00D1124ED2F3C
:103090004230510591F04CF441155105E1F04130B9
:1030A0005105B9F4E22F2B2F16C04430510569F0B9
:1030B00044F04630510579F00CC0E22F272F9D2FA8
:1030C0000AC0272F9F2DEB2F06C0E72F922F2D2F01
:1030D00002C0E72F9B2F6E2F722F892FDF91CF9188
:1030E0001F910F91FF90DF90CF90BF90AF90089508
:1030F00060914F058CE090E00C94762C90916505E2
:1031000092FF0DC0282F2871283019F4877F846022
:1031100006C0282F2471243011F48B7F886093FF20
:103120000DC0282F2871283119F4877E846106C0CC
:10313000282F2471243111F48B7E8861209166053B
:1031400020FF0DC0382F3871383019F4877F816027
:1031500006C0382F3171313011F48E7F886021FF25
:103160000DC0282F2871283119F4877E816106C08F
:10317000282F2171213111F48E7E886194FD877E84
:1031800008950F931F93CF93DF93C62FD42F022F51
:10319000FC0182818823C9F06093D1030E948420BE
:1031A00090933A058093390580E28C0F883008F0BF
:1031B00050C0C77081E001C0880FCA95EAF7DF915F
:1031C000CF911F910F910C94542A1091D103161393
:1031D00030C08091390590913A050E945A20883C70
:1031E000910538F5C0E2CD0F1D17B9F080E2810FCF
:1031F000883040F4177081E001C0880F1A95EAF713
:103200000E94492AC83048F481E09D2F977001C080
:10321000880F9A95EAF70E94542A802F0E94C52AA7
:10322000C830B8F4D77081E001C0880FDA95EAF7AA
:103230000AC080E28C0F883060F4C77081E001C062
:10324000880FCA95EAF7DF91CF911F910F910C94E7
:10325000492ADF91CF911F910F910895E8EDF0E099
:1032600080818E7F80831092E2001092DA001092AB
:10327000E100A0EEB0E08C9181608C9380818F772B
:10328000808319BCA7EDB0E08C918E7F8C938081F8
:103290008F7E80831092910508951F920F920FB632
:1032A0000F9211242F933F934F935F936F937F93CC
:1032B0008F939F93AF93BF93CF93DF93EF93FF933E
:1032C000C091E900CF708091EC00D82FD17080FDC3
:1032D000D0E81092E9008091F000877F8093F000A1
:1032E00078940E94E5241092E9008091F0008860B3
:1032F0008093F000CD2BCF70C093E900FF91EF9148
:10330000DF91CF91BF91AF919F918F917F916F91FD
:103310005F914F913F912F910F900FBE0F901F9093
:1033200018952091E4003091E50095E64091EC007D
:10333000842F817040FF22C08091E80080FD1CC076
:1033400080915806882391F0853091F08091EB00B0
:1033500085FD10C04091E4005091E50042175307ED
:1033600029F39A01915011F784E0089582E00895BD
:1033700083E0089581E0089580E008954091E80099
:1033800042FFDECF089580915A0687FF11C08091D9
:10339000E80082FD05C0809158068111F8CF11C068
:1033A0008091E8008B770BC080915806882349F004
:1033B0008091E80080FFF8CF8091E8008E778093BD
:1033C000E8000895982F973058F59093E9009817E2
:1033D00039F07091EC002091ED005091F00003C0A5
:1033E000242F762F50E021FF19C03091EB003E7F53
:1033F0003093EB003091ED003D7F3093ED00309144
:10340000EB0031603093EB007093EC002093ED0003
:103410005093F0002091EE0027FF07C09F5FD3CFAD
:103420008F708093E90081E0089580E00895CF9245
:10343000DF92EF92FF920F931F93CF93DF93C8ED2C
:10344000D0E088818F7E8883E7EDF0E08081816025
:10345000808384E082BF81E08093910588818E7FA4
:10346000888302EE10E0F80110821092DA0081EEFB
:10347000C82ED12CF601108288818F7788838881AD
:103480008068888388818F7D888319BC1092580654
:1034900010925906109257061092560690EEE92E99
:1034A000F12CF70180818B7F808388818160888304
:1034B00042E060E080E00E94E219F60180818E7FA8
:1034C0008083F8018081816080838081886080832F
:1034D000F70180818E7F8083888180618883DF917E
:1034E000CF911F910F91FF90EF90DF90CF900895B3
:1034F0001F920F920FB60F9211242F933F934F9369
:103500005F936F937F938F939F93AF93BF93EF934B
:10351000FF938091E10082FF09C08091E20082FF69
:1035200005C08091E1008B7F8093E1008091DA00FB
:1035300080FF2AC08091D80080FF26C08091DA00E9
:103540008E7F8093DA008091D90080FF18C080E1DF
:1035500089BD82E189BD09B400FEFDCF81E0809381
:1035600058068091910581110FC00E942E190E946A
:10357000171A8091E20084608093E20005C019BCB4
:1035800010925806109291058091E10080FF17C0BB
:103590008091E20080FF13C08091E2008E7F8093D3
:1035A000E2008091E20080618093E2008091D80087
:1035B00080628093D80019BC85E080935806809182
:1035C000E10084FF34C08091E20084FF30C080E1DC
:1035D00089BD82E189BD09B400FEFDCF8091D8008C
:1035E0008F7D8093D8008091E1008F7E8093E100F1
:1035F0008091E2008F7E8093E2008091E200816002
:103600008093E20080915906882311F084E007C07E
:103610008091E30087FD02C081E001C083E08093D8
:1036200058060E941F2A0E948316109292058091CC
:10363000E10083FF27C08091E20083FF23C08091D7
:10364000E100877F8093E10082E08093580610922A
:1036500059068091E1008E7F8093E1008091E20025
:103660008E7F8093E2008091E20080618093E2008F
:1036700042E060E080E00E94E2198091F000886002
:103680008093F000FF91EF91BF91AF919F918F9147
:103690007F916F915F914F913F912F910F900FBE4E
:1036A0000F901F90189520916006309161062617A3
:1036B000370748F06115710539F42091E8002E773D
:1036C0002093E80001C0B90140E061157105A9F13E
:1036D00020915806222309F443C0253009F442C042
:1036E0002091E80023FD40C02091E80022FD32C077
:1036F0002091E80020FFE9CF4091F3002091F200F3
:1037000030E0342BFC01CF016115710559F02830F0
:10371000310540F481918093F100615071092F5F70
:103720003F4FF1CF41E02830310509F040E02091D2
:10373000E8002E772093E800C8CF4111C9CF0AC016
:1037400080915806882361F0853061F08091E8000F
:1037500083FD0AC08091E80082FFF2CF80E00895E7
:1037600082E0089583E0089581E0089580915806ED
:10377000843011F081E0089582E00895CF93DF93C3
:10378000CDB7DEB72A970FB6F894DEBF0FBECDBF18
:1037900084B7877F84BF0FB6F894A89580916000A6
:1037A000886180936000109260000FBE90E080E816
:1037B0000FB6F89480936100909361000FBE85B7B7
:1037C000806885BF85B7806885BF0E942E190E94DA
:1037D000171A8091E20084608093E20078948091CF
:1037E00058068823A1F01091E9001F709091EC0019
:1037F000892F817090FD80E8182B1092E90080914C
:10380000E80083FD0E94E5241F701093E90082E028
:1038100084BD93E095BD9AEF97BD80936E000E94A2
:10382000BD0D90E090930A01809309010E94A40EBF
:103830000E94B30EA7E5B5E0EAE6F5E01EE0F12E42
:10384000FE0E11921D92FE12FCCF8EE090E00E94BF
:10385000C82C80934D0590934E05FC010E962BEFDE
:103860002193E817F907E1F780E090E00E94602CCF
:103870008F3E9E4F11F00E9443210E943B178CE027
:1038800090E00E94522C90E0A0E0B0E080934F05C1
:1038900090935005A0935105B093520589EA809307
:1038A000800089E08093810024982C983F988AB109
:1038B0008F7C8AB96E98479A8BB180638BB9769A60
:1038C0008FE090E00E945A2C60935305709354054A
:1038D000809355059093560567708FEF869FB001D2
:1038E000112475956795759567957727709389006D
:1038F0006093880070938B0060938A0070938D00B2
:1039000060938C009091530594FF03C0809317013E
:1039100002C0109217010E94340E80E090E00E94D5
:10392000602C8F3E9E4F11F00E94432182E090E078
:103930000E94522C809382050E943221909366054A
:103940008093650583E090E00E94522C682F70E020
:1039500080E090E00E94172380916A06837011F442
:103960001092080180916A068C7F816080936A06BC
:103970008BE091E09093680580936705EE24E394D3
:10398000BB24BA9440E1A42E52E1952E68E1C62EE4
:10399000D12C70E4872E80915806853009F052C0F2
:1039A00040E060E080E00E949516E09292058091F0
:1039B0005806843041F1109269050FB6F894A89525
:1039C000C09260000FBE8092600040E060E080E046
:1039D0000E949516E092920583B7817F846083BF31
:1039E00083B7816083BF7894889583B78E7F83BFC8
:1039F0000FB6F894A895809160008861809360006C
:103A0000109260000FBE80915706882309F4C3CF3F
:103A10000E94BD0D90E090930A01809309010E94DD
:103A2000A40E0E94B30EEAE6F5E01192FE12FDCF5D
:103A30000E94BA0EEAE6F5E081918111DFC0FE1224
:103A4000FBCFA9CF0E94BA0EE3E8F5E0AAE6B5E005
:103A500000E010E0302F9D912191292721F180E095
:103A600077247394472D4223D1F089833A83972199
:103A700081E009F480E08B830E9484208160782FAC
:103A80009D838C8349815A816B818D810E9483152E
:103A9000F801ED57FA4F80817826708218C08F5F49
:103AA000770C8630F9F60F5F1F4F0E30110591F637
:103AB000BE82BF8218860E9484208160782F9A87F8
:103AC00089874E815F8168858A850E9483158091F0
:103AD0007F05909180050E945A209C0190917E055F
:103AE000992321F02431310508F47CC080917A05B6
:103AF00010917B0581110BC0111194C020917C05A0
:103B0000211190C020917D0521118CC06BC09F3F79
:103B100019F09F5F90937E05181624F40E947D1F74
:103B200080937A0580917A0587FF05C00E947D1FEA
:103B3000819580937A05111624F40E947D1F80934D
:103B40007B0580917B0587FF05C00E947D1F8195C5
:103B500080937B0530917A05332301F120917B0519
:103B60002223E1F045EB3403C0011124892F990F82
:103B7000990B009719F080937A0502C0E0927A05BC
:103B800035EB2303C0011124892F990F990B00975E
:103B900019F080937B0502C0E0927B0580917C0543
:103BA000181624F40E945B1F80937C0580917C058D
:103BB00087FF05C00E945B1F819580937C058091E3
:103BC0007D05181624F40E945B1F80937D0580916B
:103BD0007D0587FF05C00E945B1F819580937D0551
:103BE0000E949020109181050E948316181709F4F5
:103BF000D2CE0E94831680938105CDCEA9BC99BCFC
:103C000009B400FEFDCF8091D8008F7D8093D8004D
:103C10008091E00082608093E0008091E00081FD6F
:103C2000FCCFB9CE9F3F09F074CF7CCF8091350691
:103C30000895CF93DF9300D01F92CDB7DEB7909158
:103C40005806943019F589837B836A8382E08093D8
:103C5000E9008FEF9091E800815095FD06C095ED49
:103C60009A95F1F700008111F5CF8091E80085FF6A
:103C70000DC040E050E063E070E0CE0101960E948C
:103C8000AE248091E8008E778093E8000F900F902B
:103C90000F90DF91CF910895CF93DF93EC010E94B5
:103CA000B61B823011F0843031F4BE0184E0DF9124
:103CB000CF910C94191EDF91CF910895BC016058EB
:103CC000710983E00C94191ECF93DF93EC010E94DD
:103CD000B61B823011F08430F9F482E08093E90061
:103CE0009FEF8091E800915085FD06C085ED8A9593
:103CF000F1F700009111F5CF8091E80085FF0CC02D
:103D000040E050E066E070E0CE010E94AE24809179
:103D1000E8008E778093E800DF91CF910895CF93EC
:103D2000DF93EC010E94B61B823011F08430D9F58C
:103D300080911501882339F08091650587FF03C0C4
:103D400060E282E002C068E081E08093E9008FEFEA
:103D50009091E800815095FD06C095ED9A95F1F798
:103D600000008111F5CF8091E80085FF1CC0809193
:103D70001501811105C040E050E068E070E003C02B
:103D800070E040E050E0CE010E94AE248091E80057
:103D90008E778093E80080E2FE01A6E3B6E0019012
:103DA0000D928A95E1F7DF91CF910895803F39F424
:103DB00080917B0587FF6CC010927B0569C0813FB5
:103DC00029F480917B051816BCF362C090917A05A6
:103DD000823F29F497FF5CC010927A0559C0833F57
:103DE00019F41916CCF354C0893F41F480917C0535
:103DF00018160CF04DC010927C054AC08A3F29F479
:103E000080917C0587FF44C0F6CF8B3F39F48091C9
:103E10007D0587FF3DC010927D053AC08C3F29F497
:103E200080917D051816BCF333C0843F21F4809146
:103E300079058E7F17C0853F21F4809179058D7FAC
:103E400011C0863F21F4809179058B7F0BC0873F9D
:103E500021F480917905877F05C0883F31F48091F6
:103E600079058F7E8093790513C08D3F21F4809171
:103E700033068E7F0BC08E3F21F4809133068D7FF9
:103E800005C08F3F29F4809133068B7F80933306E2
:103E900080917A0581110EC080917B0581110AC045
:103EA00080917C05811106C080917D05811102C041
:103EB00010927E0508958091330680FD16C081FD25
:103EC00016C082FD18C080917E05882391F088324B
:103ED00090F428E0829FC001112468E270E00E9403
:103EE000AE2C862F672B29F007C082E0089584E06E
:103EF000089581E0089588E008958091330680FD5B
:103F000017C081FD17C082FD19C080917E058823EE
:103F100099F08C3398F423E2829FC00111246CE362
:103F200070E00E94AE2C862F672B49F481E0089543
:103F300088E0089581E1089585E0089583E2089579
:103F4000803F21F40E947D1F819504C0813F29F4A8
:103F50000E947D1F80937B050895823F21F40E947B
:103F60007D1F819504C0833F29F40E947D1F8093AB
:103F70007A050895893F19F40E945B1F05C08A3FA6
:103F800031F40E945B1F819580937C0508958B3FDF
:103F900021F40E945B1F819504C08C3F29F40E948C
:103FA0005B1F80937D050895843F21F480917905FE
:103FB000816017C0853F21F480917905826011C02E
:103FC000863F21F48091790584600BC0873F21F4FE
:103FD00080917905886005C0883F31F4809179052A
:103FE00080618093790508958D3F21F48091330697
:103FF00081600BC08E3F21F480913306826005C042
:104000008F3F29F4809133068460809333060895AE
:1040100078941F920F920FB60F9211248F939F9353
:10402000AF93BF9380912F0690913006A0913106F7
:10403000B09132060196A11DB11D80932F06909379
:104040003006A0933106B0933206BF91AF919F9195
:104050008F910F900FBE0F901F901895CF92DF9207
:10406000EF92FF920F931F932FB7F894C0902F06F3
:10407000D0903006E0903106F09032062FBF9701C5
:104080008601061B170B280B390BC616D706E80648
:10409000F90618F0C901B80106C0C901B80161509C
:1040A0007109810991091F910F91FF90EF90DF90A5
:1040B000CF900895CF92DF92EF92FF920F931F93CC
:1040C0002FB7F89440912F06509130066091310639
:1040D000709132062FBF6A017B01EE24FF248C0110
:1040E00020E030E0C016D106E206F30610F441509D
:1040F00051099A01281B390BC9011F910F91FF909B
:10410000EF90DF90CF9008952FB7F89480912F060D
:1041100090913006A0913106B09132062FBF0895DC
:10412000E0916705F0916805309749F082E080934F
:1041300078050480F581E02D88E795E009950E94D7
:1041400084209093800580937F0508951F920F929D
:104150000FB60F9211248F939F93AF93BF938091CB
:104160006905811113C080912F0690913006A091AE
:104170003106B09132064196A11DB11D80932F06E4
:1041800090933006A0933106B0933206BF91AF9161
:104190009F918F910F900FBE0F901F9018952091B7
:1041A0001501222321F02091650527FD04C0FC01A3
:1041B0003296089619C0262F2695269526952E31DB
:1041C000C0F4FC01E20FF11D677081E090E001C0D6
:1041D000880F6A95EAF780959281892382830895F2
:1041E0003196E817F90729F020812613F9CF1082BC
:1041F000F7CF089520911501222321F02091650524
:1042000027FD05C0FC0132962FEF30E019C0262FA4
:104210002695269526952E3120F5FC01E20FF11DFD
:10422000677081E090E001C0880F6A95EAF792819B
:10423000892B828308952F3F39F03F5F363041F05C
:1042400041914613F8CF0DC04111F7CF232FF5CF81
:104250002F3F39F0FC01E20FF11D27FDFA95628333
:1042600008950895CF9384E090E00E94522CC82FC7
:1042700081E290E00E94522C2C2F30E0A901582BB3
:10428000CA01CF9108956FEE7EEF80E090E00E942A
:10429000942C60E082E090E00E94762C60E083E065
:1042A00090E00E94762C10922B0610922C06109211
:1042B0002D0610922E0660E084E090E00E94762C9D
:1042C00060E081E290E00E94762C60E085E090E082
:1042D0000E94762C60E086E090E00E94762C6FEFE2
:1042E00087E090E00E94762C40E050E0BA0188E040
:1042F00090E00E94882C60E08DE090E00E94762C97
:1043000040E050E0BA0188E190E00E94882C60E033
:1043100087E190E00E94762C40E050E0BA018CE109
:1043200090E00E94882C60E080E290E00E94762C71
:10433000109253051092540510925505109256058F
:1043400084E080618093530540915305509154055A
:1043500060915505709156058FE090E00E94882C81
:1043600040E050E0BA0183E190E00C94882C809109
:104370002A06811110922A060895909128068091AC
:104380002906892B20912706982F922B909393052D
:1043900080912A068823D9F0892B809393058091F8
:1043A0001501882331F08091650587FF02C08EE1F9
:1043B00001C086E0E5E9F5E090E0815028F0219128
:1043C0002223D9F39F5FF9CF91110E94B721E09189
:1043D0006705F09168053097A9F080911501882351
:1043E00059F08091650587FF07C080919305809300
:1043F000940585E0809393050280F381E02D83E9A5
:1044000095E009940895BF92CF92DF92EF92FF92C8
:104410000F931F93CF93DF938C01C0902B06D09006
:104420002C06E0902D06F0902E06809122069091A9
:104430002306A0912406B0912506C82AD92AEA2A83
:10444000FB2ACFE1D0E0D701C6010C2E04C0B695FF
:10445000A795979587950A94D2F780FF07C0BC2E41
:10446000B8018C2F0E949C0B019719F4219758F7E3
:10447000B12C8B2DDF91CF911F910F91FF90EF9079
:10448000DF90CF90BF900895CF93DF93EC010E940F
:104490000322BE010E949C0BDF91CF910895292F2A
:1044A000220F920F990F890F682F66956695669572
:1044B000982F977085E0689FB001112440E050E08C
:1044C00080E0FA01E60FF71FE551FA4F208130E056
:1044D000092E02C0369527950A94E2F721703327FA
:1044E000042E01C0220F0A94EAF7822B4F5F5F4F20
:1044F0004530510531F70895292F220F920F990F5A
:10450000890FA82FA695A695A695877051E001C0A2
:10451000550F8A95EAF785E0A89FD001112420E085
:1045200030E070E0F901EA0FFB1FE551FA4F4081DE
:10453000CB01022E02C0969587950A94E2F781700E
:104540009927819584278523842780832F5F3F4F78
:104550002530310539F708950E94460D60932206F3
:104560007093230680932406909325060C94042AC6
:104570000F931F9341E050E060E070E004C0440FEF
:10458000551F661F771F8A95D2F740955095609505
:1045900070958091220690912306A0912406B091F7
:1045A00025068A019B01082319232A233B23C901DD
:1045B000B8011F910F910C94AC2220912606809592
:1045C000822380932606982F977079F430E0482F45
:1045D000082E000C550B2417350739F08595859565
:1045E00085950E94B8221092260608950F931F9376
:1045F00041E050E060E070E004C0440F551F661FCA
:10460000771F8A95D2F78091220690912306A09178
:104610002406B09125068A019B01082B192B2A2B11
:104620003B2BC901B8011F910F910C94AC226093F0
:104630002B0670932C0680932D0690932E060C94D7
:10464000042A8091EA059091B905891719F08F5FC6
:104650008770FBCF08959F92AF92BF92CF92DF9267
:10466000EF92FF920F931F93CF93DF936C01809192
:104670001601C82FCC0FCC0FC80FD5E0DC0FD133FB
:1046800008F0D0E360916E066695669580916206AB
:10469000909163060E94D917182F80E4810F0E9421
:1046A000571790E8F92EF80E812F0E94571720E82F
:1046B000922E980ECD1700F5AC2EB12CF501E259D3
:1046C000FC4F8081909117019823A1F060916B06B7
:1046D00070916C0680916D06E12E0C2F292D4F2DC7
:1046E000F60109950E94E417462F282F672FC50170
:1046F0000E949716CF5FDECF81E0D03308F080E0D4
:10470000DF91CF911F910F91FF90EF90DF90CF90AD
:10471000BF90AF909F9008956F927F928F929F92DB
:10472000AF92BF92CF92DF92EF920F931F93CF93EE
:10473000DF934C0180911601C82FCC0FCC0FC80F0E
:10474000D5E0DC0FD13308F0D0E360916E066695BA
:1047500080916206909163060E94D917182FCD1799
:1047600008F044C06C2E712CF301E259FC4F90818B
:10477000809117018923C1F1F301EE0FFF1FE25F62
:10478000FC4FC080D12C80E7C81AD108F301EE0F8E
:10479000FF1FE15FFC4FA080B12CE0E2AE1AB10830
:1047A000CC9C9001CD9C300D300D1124AA9CC001F1
:1047B000AB9C900D900D1124820F931F0E947817CF
:1047C000082F60916B0670916C0680916D06E12E4A
:1047D0009501A601F40109950E94E417462F282FA0
:1047E000672FC3010E949716CF5FB9CF81E0D03306
:1047F00008F080E0DF91CF911F910F91EF90DF9053
:10480000CF90BF90AF909F908F907F906F900895C2
:10481000CF92DF92EF92FF920F931F93CF93DF938C
:104820007C0180911601C82FCC0FCC0FC80FD5E0AA
:10483000DC0FD13308F0D0E360916E06669580916D
:104840006206909163060E94D917182FCD1778F54C
:10485000CC2ED12CF601E259FC4F908180911701AA
:10486000892319F1F601EE0FFF1FE15FFC4F208154
:1048700030E020523109F601EE0FFF1FE25FFC4FDE
:10488000408150E04057510960916B0670916C0671
:1048900080916D06012FF70109950E94E417462FBC
:1048A000282F672FC6010E949716CF5FCFCF81E0D8
:1048B000D03308F080E0DF91CF911F910F91FF90EE
:1048C000EF90DF90CF900895DF92EF92FF920F93D9
:1048D0001F93CF93DF937C0190911601C92FCC0FCA
:1048E000CC0FC90FD5E0DC0FD13308F0D0E36091D5
:1048F0006E066695669580916206909163060E94A9
:10490000D917D82ECD17F0F40C2F10E0F801E2598A
:10491000FC4F808190911701982391F060916B0674
:1049200070916C0680916D062D2D4C2FF701099525
:104930000E94E417462F282F672FC8010E94971660
:10494000CF5FE0CF81E0D03308F080E0DF91CF91FE
:104950001F910F91FF90EF90DF900895CF92DF921B
:10496000FF920F931F93CF93DF931F92CDB7DEB7C4
:10497000F82E8B0199830E949119998181111CC095
:10498000CF2CD92E01151105B1F08091E80085FDDD
:104990000AC08091E8008E778093E8000E94911908
:1049A000882381F309C0F60181916F018093F100A2
:1049B00001501109E7CF80E00F90DF91CF911F9157
:1049C0000F91FF90DF90CF9008951F93CF93DF93C7
:1049D000CDB7DEB7AA970FB6F894DEBF0FBECDBF36
:1049E000EAE5F6E088E08E0F9091F10091938E1346
:1049F000FBCF80915B06833009F460C030F48130D6
:104A000071F0823009F49AC0B1C08A3009F486C0CE
:104A10008B3009F46BC0893009F0A8C020C08091A8
:104A20005A06813A09F0A2C08091E800877F8093FE
:104A3000E80080915E0690915F06892B21F460E288
:104A400086E396E003C060E080E090E070E00E94C2
:104A5000531B8091E8008B778093E80087C080919A
:104A60005A06813209F082C080915E0690915F06FD
:104A7000029708F07BC08091E800877F8093E80070
:104A80008091E80082FD05C0809158068111F8CF21
:104A90006DC02091F3008091F20090E0922B02977C
:104AA00029F48091F1008B7F813021F48091F10015
:104AB000809335068091E8008B7754C080915A0628
:104AC000813A09F053C080915E0690915F06892B70
:104AD00009F04CC08091E800877F8093E8008091C6
:104AE000E80080FFFCCF8091150137C080915A0605
:104AF0008132E1F580915E0690915F06892BB1F5D8
:104B00008091E800877F8093E8000E94C31980911C
:104B10005C06809315010E941F2A28C080915A06C6
:104B2000813221F58091E800877F8093E8000E9420
:104B3000C31980915D068093340618C080915A068F
:104B4000813AA1F48091E800877F8093E80080910A
:104B5000E80080FFFCCF809134068093F1008091C3
:104B6000E8008E778093E8000E94C3198091E800E6
:104B700083FFD6C180915A0690915B06492F50E081
:104B80004A30510508F0CCC1FA01E656FF4F0C94AB
:104B9000C22C803821F0823809F0C2C108C080914F
:104BA000560690915706992389F082600FC0809134
:104BB0005E068F70873008F0B3C18093E900809162
:104BC000EB0085FB882780F91092E9009091E800BE
:104BD000977F9093E8008093F1001092F10074C1E8
:104BE000282F2D7F09F09CC1882319F0823061F0B5
:104BF00097C180915C06813009F092C1933009F031
:104C000080E0809357062EC080915C0681112AC0F7
:104C100080915E068F702FEF280F263008F080C13C
:104C20008093E9002091EB0020FF1CC0933021F419
:104C30008091EB00806214C09091EB0090619093A2
:104C4000EB0021E030E0A90102C0440F551F8A9516
:104C5000E2F74093EA001092EA008091EB0088604E
:104C60008093EB001092E9008091E800877F2FC1CC
:104C7000811156C110915C061F778091E300807806
:104C8000812B8093E3008091E800877F8093E80088
:104C90000E94C3198091E80080FFFCCF8091E3005F
:104CA00080688093E300111102C082E001C083E0BC
:104CB0008093580635C18058823008F031C1809108
:104CC0005C0690915D068C3D53E0950779F583E095
:104CD0008A838AE289834FB7F894DE01139620E035
:104CE0003EE051E2E32FF0E050935700E49120FFC3
:104CF00003C0E295EF703F5FEF708E2F90E0EA30D7
:104D000010F0C79601C0C0968D939D932F5F2431FC
:104D100049F74FBF8091E800877F8093E8006AE2FF
:104D200070E0CE0101960E94531BBDC040915E060B
:104D300050915F06292F332723303105B9F06CF4E9
:104D40002130310509F4FBC02230310509F0E8C0FB
:104D50008BE390E0ECE5F5E054C02132310509F435
:104D600033C02232310509F43CC0DAC099278130C2
:104D70009105D1F05CF4892B09F0D2C0E1EDF5E0AA
:104D8000E4918E2F90E0E1EDF5E038C0823091059E
:104D900099F0039709F0C4C0E9EAF5E0E4918E2F99
:104DA00090E0E9EAF5E02AC0E7ECF5E0E4918E2F27
:104DB00090E0E7ECF5E022C0EFEAF5E0E4918E2F19
:104DC00090E0EFEAF5E01AC04115510509F4BCC0C6
:104DD0004130510509F0A4C089E090E0E7E8F5E032
:104DE00010C04115510509F4B4C04130510509F016
:104DF00097C080EC90E0ECE5F4E003C0009709F484
:104E00008FC02091E800277F2093E8002091600662
:104E1000309161062817390708F4C90140E000976E
:104E200089F120915806222309F43DC02530D9F19B
:104E30002091E80023FD37C02091E80022FD2FC01B
:104E40002091E80020FFEBCF4091F3002091F20089
:104E500030E0342B009759F02830310540F444916C
:104E60004093F100319601972F5F3F4FF3CF41E020
:104E70002830310509F040E02091E8002E7720939A
:104E8000E800CDCF4111CDCF0AC0809158068823CC
:104E900051F0853041F08091E80083FD04C080919D
:104EA000E80082FFF2CF8091E8008B778093E800E2
:104EB00037C08038A9F58091E800877F8093E800AB
:104EC000809159068093F1008091E8008E7780935D
:104ED000E8000E94C31924C0811122C010915C0611
:104EE0001230F0F48091E800877F8093E8001093FF
:104EF00059060E94C319111106C08091E30087FD75
:104F000002C081E001C084E08093580642E061EC79
:104F100081E00E94E21942E261EC82E00E94E21923
:104F20008091E80083FF1AC08091E800877F80931A
:104F3000E8008091EB0080628093EB000FC082E17B
:104F400090E0E7E9F5E05DCF89E090E0EEE6F5E09E
:104F500058CF80E490E0ECE1F5E053CFAA960FB68D
:104F6000F894DEBF0FBECDBFDF91CF911F910895A2
:104F70008091B80582958F7009F054C08091B50575
:104F8000882309F44FC08091EA05A091B90560918A
:104F9000B3057091B4054091B6055091B705B6E0E0
:104FA0008A1709F43FC090E041155105C1F17F3FD8
:104FB00011F46F3FA1F1B89FF001B99FF00D1124DA
:104FC000E654FA4F218172132AC02081621327C050
:104FD0002281211124C0238134812417350710F444
:104FE00021503109241B350B283C3105C0F4209198
:104FF000B8052F7020612093B80526E0289FF001A6
:10500000299FF00D1124E154FA4F80818F70806147
:10501000808383EB95E00E940A030C942123019680
:105020008770BECF08950E944422292F2F70929539
:105030009F70E92FF0E03297EE30F105B8F4EC55AF
:10504000FF4F0C94C22C803F99F018F4883E70F406
:105050000FC0843F59F40CC0883E50F0813F31F4BA
:1050600007C0822F869586958695089580E00895DD
:1050700081E00895BF92CF92DF92EF92FF920F935B
:105080001F93CF93DF93CDB7DEB761970FB6F89438
:10509000DEBF0FBECDBF8C0185E0F801DE011D969D
:1050A00001900D928A95E1F7D8013C9111962C91CF
:1050B00011971296EC9012971396CD90DC9014975E
:1050C0005091B3056091B4058091B6059091B705F4
:1050D000009709F44FC16F3F19F45F3F09F44AC1CB
:1050E000B090B505BB2009F4ECC04091B805C816D6
:1050F000D90628F0F601E81BF90BCF0104C0809512
:1051000090958C0D9D1DFF24F394883C910548F0EB
:10511000F12C407F09F09FC083EB95E00E940A03C9
:1051200021C1842F807F09F044C0621312C0531341
:1051300010C0E1100EC04F7040614093B80583EB82
:1051400095E00E940A038091B805D80115968C93CA
:105150002EC0CD2819F12F3F11F43F3FF9F0FE2C5E
:10516000E1101CC08091EA054091B90556E0841712
:1051700009F458C090E0589FF001599FF00D112498
:10518000E654FA4F6181261306C06081361303C0CE
:105190006281611103C001968770E9CFFE2CEE2079
:1051A00009F421C18091B80581608093B805F12C84
:1051B0001AC162130AC0531308C0E11006C08091DF
:1051C000B805D80115968C93B0C03D872E878D8584
:1051D0009E850E9413288823D1F1EE20C1F12091F1
:1051E000B805822F82958F7090E0029774F08091BD
:1051F000B3059091B40598878F831986DB86CA869C
:105200002C87CE0107960E940A0386E0F801A3EBE3
:10521000B5E001900D928A95E1F70E94B827FF242E
:10522000F394E1C03D872E878D859E850E944422A0
:10523000292F22952F7030E0223031050CF0C7C0A5
:105240009F7009F0C1C0805E883008F4CCC0C801EE
:105250000E940A03E4CF621314C0531312C0E1107A
:1052600010C08091B805F8018583C8010E940A0327
:1052700086E0E3EBF5E0DF011D928A95E9F7FB2C70
:10528000B2C03D872E878D859E850E941328882376
:10529000F1F2EE20E1F22091B805822F82958F7015
:1052A00090E002970CF4B1CF8091B3059091B405D2
:1052B0009A8389831B82DD82CC822E83CE01019664
:1052C000A2CFC816D90638F0C81AD90AB8ECCB163E
:1052D000D10450F007C0809590958C0D9D1D883CA1
:1052E000910510F0F12C3EC0FE2CEE2009F4AFCF5A
:1052F000621327C0531325C02091B80520FD18C0A4
:10530000822F82958F70482F50E04115510581F012
:10531000F80125834F30510541F08F5F982F92950A
:10532000907F822F8F70892B8583C8010E940A038A
:1053300086E0F801A3EBB5E001900D928A95E1F7C4
:1053400052C03D872E878D859E850E94132881112E
:105350005CCF8091B80581608093B805C8010E9438
:105360000A0341C0E3EBF5E086E0DF011D928A9578
:10537000E9F739C0EE2009F46ACF3D872E878D8585
:105380009E850E941328F82E882309F460CF86E0BA
:10539000F801A3EBB5E001900D928A95E1F78091B9
:1053A000B3059091B4050E94442292959F70963067
:1053B00041F48091700691E0892780937006909364
:1053C0006F060E94B8270FC081113DCF0CC024305A
:1053D00031050CF03CCF9F7009F435CFF801958171
:1053E000907F09F030CF8F2D61960FB6F894DEBF15
:1053F0000FBECDBFDF91CF911F910F91FF90EF9026
:10540000DF90CF90BF900895109228061092270643
:105410000E94BD21E8E7F5E086E0DF011D928A9554
:10542000E9F710927E05109233060E94902080E0EA
:1054300090E00E946D1680E090E00C945716109258
:10544000290680911501882331F08091650587FF39
:1054500002C08EE101C086E0E5E9F5E0DF011D92C2
:105460008A95E9F70C94042A882341F0809590915D
:1054700028068923809328060C94BD21089588234B
:1054800039F090912806892B809328060C94BD2131
:105490000895882341F0809590912906892380936F
:1054A00029060C94BD210895882339F0909129068E
:1054B000892B809329060C94BD210895882309F433
:1054C00063C0823869F40E94831681FF5DC069E37E
:1054D00083E995E00E94FA200E94BD2169E30EC095
:1054E000833891F40E94831680FF4EC063E583E900
:1054F00095E00E94FA200E94BD2163E583E995E0D2
:105500000E94CF200C94BD21843869F40E94831638
:1055100082FF3AC067E483E995E00E94FA200E9486
:10552000BD2167E4EBCF9CEF980F913A10F4682F00
:10553000E5CF90E2980F983088F4877021E030E052
:10554000A90102C0440F551F8A95E2F7CA01809550
:1055500090912906892380932906D4CF9BE5980F43
:10556000933020F480E090E00C946D1698E5980F4D
:10557000973120F480E090E00C945716803F20F0A3
:105580000E94D61E0C9490200895CF93C82F0E949D
:10559000D82AC93349F42FEF87EE93E02150804099
:1055A0009040E1F700C000008C2FCF910C945E2A50
:1055B000882309F489C08238B1F40E94831681FDE2
:1055C00083C069E383E995E00E94FA200E94BD212F
:1055D0002FEF41EE54E0215040405040E1F700C031
:1055E000000069E317C08338D9F40E94831680FD58
:1055F0006BC063E583E995E00E94FA200E94BD211B
:105600008FEF91EE24E0815090402040E1F700C000
:10561000000063E583E995E00E94CF200C94BD2152
:105620008438B1F40E94831682FD4EC067E483E99A
:1056300095E00E94FA200E94BD214FEF51EE84E0D8
:10564000415050408040E1F700C0000067E4E2CFE5
:105650009CEF980F913A30F4682F83E995E00E940F
:10566000FA20DCCF90E2980F983080F4877021E028
:1056700030E0A90102C0440F551F8A95E2F7CA0124
:1056800090912906892B80932906C8CFEBE5E80F76
:10569000E33038F4F0E0E256FC4F808190E00C9467
:1056A0006D16E8E5E80FE73148F4F0E0EE0FFF1F74
:1056B000EF55FC4F808191810C945716803F20F06C
:1056C0000E94A01F0C94902008951092B9008CE0C5
:1056D0008093B8000895EF92FF920F931F93CF939A
:1056E000DF93182FEB011092BC0084EA8093BC007A
:1056F0000E9484207C019091BC0097FD0EC0CF3F9A
:105700008FEFD807C1F30E9484208E199F098C1750
:105710009D0788F38EEF9FEF2EC09091B900987F80
:10572000983041F09091B900987F903119F08FEF47
:105730009FEF21C01093BB0084E88093BC000E94BF
:1057400084208C019091BC0097FD0CC0CF3F8FEF5F
:10575000D807C1F30E948420801B910B8C179D07F2
:1057600088F3D8CF8091B900887F883111F08034D8
:10577000F1F680E090E0DF91CF911F910F91FF90C3
:10578000EF9008950F931F93CF93DF93EB018093D6
:10579000BB0084E88093BC000E9484208C0190911F
:1057A000BC0097FD0EC0CF3F8FEFD807C1F30E941A
:1057B0008420801B910B8C179D0788F38EEF9FEF41
:1057C0000CC02091B900287F81E090E0283211F4CC
:1057D00080E090E0919581959109DF91CF911F91A3
:1057E0000F9108950F931F93CF93DF93EC0184E8FB
:1057F0008093BC000E9484208C019091BC0097FD96
:105800000EC0CF3F8FEFD807C1F30E948420801BCA
:10581000910B8C179D0788F38EEF9FEF03C080914B
:10582000BB0090E0DF91CF911F910F910895CF922F
:10583000DF92EF92FF920F931F93CF93DF936B0151
:105840008A017901B9010E946B2BE6010C0D1D1D27
:10585000C017D10761F424E92093BC00DF91CF91F8
:105860001F910F91FF90EF90DF90CF90089597FDDB
:10587000F2CFB70189910E94C22BEACF84E98093CD
:10588000BC000895DC01CB01FC01F999FECF06C0F4
:10589000F2BDE1BDF89A319600B40D9241505040EE
:1058A000B8F70895F999FECF92BD81BDF89A99276E
:1058B00080B50895A6E1B0E044E050E00C94442C9B
:1058C000A8E1B0E042E050E00C94442CDC01A40FCD
:1058D000B51F4150504048F0CB01840F951F2E91C9
:1058E0000E94772C41505040D0F70895262FF99907
:1058F000FECF92BD81BDF89A019700B4021639F02F
:105900001FBA20BD0FB6F894FA9AF99A0FBE0895FF
:105910000396272F0E94772C0E94762C252F0E9419
:10592000772C242F0C94772C0196272F0E94772C0C
:105930000C94762CAA1BBB1B51E107C0AA1FBB1FEE
:10594000A617B70710F0A61BB70B881F991F5A950B
:10595000A9F780959095BC01CD01089597FB072E7E
:1059600016F4009407D077FD09D00E949A2C07FC0A
:1059700005D03EF4909581959F4F0895709561955F
:105980007F4F0895EE0FFF1F0590F491E02D0994CD
:10599000CF93DF938230910510F482E090E0E091A4
:1059A0007306F091740620E030E0C0E0D0E030975C
:1059B00011F14081518148175907C0F04817590724
:1059C00061F482819381209719F09B838A832BC095
:1059D000909374068093730626C02115310519F043
:1059E0004217530718F49A01BE01DF01EF0102804C
:1059F000F381E02DDCCF2115310509F1281B390B8E
:105A00002430310590F412968D919C911397611575
:105A1000710521F0FB019383828304C09093740687
:105A200080937306FD01329644C0FD01E20FF31F1F
:105A300081939193225031092D933C933AC0209148
:105A4000710630917206232B41F4209102013091AE
:105A5000030130937206209371062091000130916A
:105A600001012115310541F42DB73EB740910401E4
:105A700050910501241B350BE0917106F0917206DF
:105A8000E217F307A0F42E1B3F0B2817390778F015
:105A9000AC014E5F5F4F2417350748F04E0F5F1F74
:105AA00050937206409371068193919302C0E0E097
:105AB000F0E0CF01DF91CF9108950F931F93CF9323
:105AC000DF93009709F48CC0FC0132971382128295
:105AD00000917306109174060115110581F420815F
